:1000000086C10000B5C10000B3C10000B1C100004D
:10001000AFC10000ADC10000ABC10000A9C100002C
:10002000A7C10000A5C10000A3C10000A1C100003C
:100030009FC100009DC100009BC1000099C100004C
:1000400097C100000C94F64393C1000091C10000D9
:100050008FC100008DC100008BC100000C94A94726
:1000600087C100000C94BD500C94ED5081C100007C
:100070007FC100007DC100007BC1000079C100008C
:100080000C942A4475C1000073C1000071C10000C6
:100090000C9464510C9494516BC1000069C1000030
:1000A00067C1000065C100000C945E4461C100009E
:1000B0005FC100005DC100005BC100000C94924470
:1000C00057C1000055C1000053C100000C940B52F1
:1000D0000C943B524DC100000C94B2520C94E2526D
:1000E00047C10000001D3A2774694E53E8F5D2CF8E
:1000F0009C81A6BBCDD0F7EAB9A4839E25381F0208
:10010000514C6B76879ABDA0F3EEC9D46F725548F7
:100110001B06213C4A57706D3E230419A2BF9885E7
:10012000D6CBECF1130E2934677A5D40FBE6C1DCD7
:100130008F92B5A8DEC3E4F9AAB7908D362B0C11C7
:10014000425F78659489AEB3E0FDDAC77C61465BB7
:100150000815322F5944637E2D30170AB1AC8B96A7
:10016000C5D8FFE2263B1C01524F6875CED3F4E997
:10017000BAA7809DEBF6D1CC9F82A5B8031E392487
:10018000776A4D50A1BC9B86D5C8EFF24954736E77
:100190003D20071A6C71564B1805223F8499BEA367
:1001A000F0EDCAD735280F12415C7B66DDC0E7FA57
:1001B000A9B4938EF8E5C2DF8C91B6AB100D2A3747
:1001C00064795E43B2AF8895C6DBFCE15A47607D37
:1001D0002E3314097F6245580B16312C978AADB027
:1001E000E3FED9C400002100240027002A002D00CE
:1001F0003000330001010000040107010A01000082
:100200002200250028002B002E00310034000201BE
:100210000000050108010B0100002000230026005A
:1002200029002C002F00320000010000030106010C
:10023000090105050505070508080808020202026C
:100240000A0A080804040404010101010101010172
:100250000303030303030303040707070C0C0C0C3D
:100260000C0C0C0C02020202060606060606060626
:100270000B0B0B0B0B0B0B0B0102102020080810B3
:100280002040102040800201020108040201010206
:1002900004081020408080402010080402018004DF
:1002A000020180402010080402010804020101023A
:1002B0000408102040800102040810204080000043
:1002C0000A0B02090C0D0E080703040100000000D0
:1002D000000000000000000000000000000000001E
:1002E00000000000000000000000121110000000DB
:1002F00000000000000000000000000000000000FE
:10030000000000006C025851FF51A6524F531124B7
:100310001FBECFEFD1E2DEBFCDBF00E00CBF15E0C6
:10032000A0E0B2E0E8EEFBEA00E00BBF02C00790FD
:100330000D92AC37B107D9F72AE0ACE7B5E001C0C0
:100340001D92A035B207E1F711E0C7E8D1E000E067
:1003500006C021970109802FFE010E947554C23802
:10036000D10780E00807A9F70E94453F0C94F25599
:1003700047CECF92DF92EF92FF920F931F93E82F19
:10038000F92F05C0015011092109310961F190814E
:1003900096239417B9F305C00150110921093109B9
:1003A00011F1908196239413F7CFC12CD12CE12C1D
:1003B000F12C0AC08FEFC81AD80AE80AF80A0C15FF
:1003C0001D052E053F0579F080818623841791F362
:1003D0006C2D7D2D8E2D9F2D1F910F91FF90EF90F5
:1003E000DF90CF90089560E070E080E090E01F9192
:1003F0000F91FF90EF90DF90CF900895CF93DF9310
:100400001F921F92CDB7DEB789836A838981282F17
:1004100030E0C901880F991F820F931F84589A4FAB
:100420002A81222F30E0B9010E94B74500000F90C9
:100430000F90DF91CF910895CF93DF931F921F927A
:10044000CDB7DEB789836A838981282F30E0C9015F
:10045000880F991F820F931F84589A4F2A81222F49
:1004600030E0B9010E94634600000F900F90DF91C9
:10047000CF910895EF92FF920F931F93CF93DF9345
:1004800000D01F92CDB7DEB79A8389837C836B83BC
:1004900089819A810197A1F48B819C81019681F4D5
:1004A0008CE795E002E010E07C0111234CF0C701DD
:1004B0000E94834583E0E80EF11C01501109F5CF3D
:1004C00000000F900F900F900F90DF91CF911F9130
:1004D0000F91FF90EF900895CF93DF93CDB7DEB7E4
:1004E0006FEF7FEF81E090E0C5DFDF91CF9108955E
:1004F000CF93DF931F921F92CDB7DEB789836A83B4
:1005000061E089810E94BC4960E08A810E94BC4907
:1005100000000F900F90DF91CF910895EF92FF921E
:100520000F931F93CF93DF9300D000D000D01F9282
:10053000CDB7DEB79E838D836F83488729870A876F
:100540008F81882321F461E088850E94BC4960E0A6
:1005500088850E945B4B0E941A48DC01CB0189838D
:100560009A83AB83BC830E941A489B01AC018981AA
:100570009A81AB81BC8179018A01E81AF90A0A0BD8
:100580001B0BD801C70121E00697A105B10508F0B2
:1005900020E0222309F0E7CF61E088850E945B4BD1
:1005A0000E941A48DC01CB0189839A83AB83BC8308
:1005B0000E941A489B01AC0189819A81AB81BC8160
:1005C000281B390B4A0B5B0B8A85882F90E0A0E033
:1005D000B0E061E082179307A407B50708F460E074
:1005E000662309F0E5CF60E088850E945B4B8F8130
:1005F000882321F460E089850E94BC4920E432E42C
:100600004FE050E061E089850E94E34BDC01CB01C3
:100610002D813E81F90180839183A283B383000001
:100620002A960FB6F894DEBF0FBECDBFDF91CF91F3
:100630001F910F91FF90EF900895CF93DF9300D01B
:1006400000D01F921F92CDB7DEB76D837E838F835C
:1006500098878D819E81AF81B885BF7720E030E09B
:1006600040E859E5BC01CD010E94814088230CF08F
:1006700056C020E030E040E05FE36D817E818F81F5
:1006800098850E9423428823BCF020E030E040E0BF
:100690005FE36D817E818F8198850E940A40DC0135
:1006A000CB01BC01CD010E945B41DC01CB01898300
:1006B0009A83AB83BC833BC020E030E040E05FEB3B
:1006C0006D817E818F8198850E942342181684F463
:1006D00020E030E0A9016D817E818F8198850E94A4
:1006E0002742DC01CB0189839A83AB83BC831FC083
:1006F00020E030E040E05FE36D817E818F8198856E
:100700000E940940DC01CB01BC01CD010E946E407A
:10071000DC01CB0189839A83AB83BC8308C08D81C4
:100720009E81AF81B88589839A83AB83BC8389819D
:100730009A81AB81BC81BC01CD0128960FB6F8949B
:10074000DEBF0FBECDBFDF91CF910895CF92DF9274
:10075000EF92FF920F931F93CF93DF93CDB7DEB746
:1007600062970FB6F894DEBF0FBECDBF8091320AFC
:10077000882311F01092320ACE010F960AE022E08F
:100780004AE061E0CBDE8F859889A989BA89BC01EE
:10079000CD010E941E41DC01CB012EEA34ED43EB7A
:1007A00059E3BC01CD010E942742DC01CB0120E0CE
:1007B00030E040E050E4BC01CD010E948540DC0106
:1007C000CB0189839A83AB83BC8380918E03909104
:1007D0008F03A0919003B09191039C01AD016981B9
:1007E0007A818B819C810E948140882361F4809171
:1007F000860390918703A0918803B0918903898330
:100800009A83AB83BC838091FA029091FB02A09102
:10081000FC02B091FD0211E09C01AD0169817A8179
:100820008B819C810E94234288230CF410E01A875C
:100830008091370A882311F01092370ACE010F9663
:100840000AE02CE046E061E069DE8F859889A9899D
:10085000BA89BC01CD010E941E41DC01CB012EEA08
:1008600034ED43EB59E3BC01CD010E942742DC018A
:10087000CB0120E030E040E050E4BC01CD010E941B
:100880008540DC01CB018D839E83AF83B887809147
:10089000060390910703A0910803B09109039C01FE
:1008A000AD016D817E818F8198850E948140882372
:1008B00061F48091820390918303A0918403B091AD
:1008C00085038D839E83AF83B8878091FE029091CC
:1008D000FF02A0910003B091010311E09C01AD0162
:1008E0006D817E818F8198850E94234288230CF43C
:1008F00010E01B8780912D0A882311F010922D0A99
:10090000CE010F960AE029E04BE061E007DE8F851B
:100910009889A989BA89BC01CD010E941E41DC01D8
:10092000CB012EEA34ED43EB59E3BC01CD010E942B
:100930002742DC01CB0120E030E040E050E4BC0184
:10094000CD010E948540DC01CB018D839E83AF8366
:10095000B8878091920390919303A0919403B091F2
:1009600095039C01AD016D817E818F8198850E94E8
:100970008140882361F480918A0390918B03A09138
:100980008C03B0918D038D839E83AF83B887809154
:10099000020390910303A0910403B091050311E0B9
:1009A0009C01AD016D817E818F8198850E942342DB
:1009B00088230CF410E01C8781E09C85992309F0C2
:1009C00080E08D878B85882331F08A85882319F014
:1009D0008C85882349F48B858823B9F08A85882300
:1009E000A1F48D85882389F0809166039091670337
:1009F000A0916803B09169038093FD099093FE096B
:100A0000A093FF09B093000AADC081E09B859923B4
:100A100009F080E08E878E858823B9F08D85882344
:100A2000A1F08A85882389F080916A0390916B03F5
:100A3000A0916C03B0916D038093FD099093FE0922
:100A4000A093FF09B093000A8DC08E85882331F0F2
:100A50008A85882319F48C85882349F48E85882318
:100A6000B9F08A858823A1F08C85882389F080914C
:100A70006E0390916F03A0917003B0917103809306
:100A8000FD099093FE09A093FF09B093000A6AC084
:100A90008B858823B9F08A858823A1F48C858823E7
:100AA00089F08091720390917303A0917403B091C7
:100AB00075038093FD099093FE09A093FF09B093FD
:100AC000000A50C08B858823B9F08A858823A1F05D
:100AD0008D85882389F08091760390917703A0918A
:100AE0007803B09179038093FD099093FE09A09358
:100AF000FF09B093000A36C08E85882319F18A85D4
:100B0000882301F58D858823E9F02D813E814F8171
:100B1000588569817A818B819C810E942342882338
:100B20008CF080917A0390917B03A0917C03B0912B
:100B30007D038093FD099093FE09A093FF09B09374
:100B4000000A10C080917E0390917F03A0918003E2
:100B5000B09181038093FD099093FE09A093FF0952
:100B6000B093000A8091450A873028F48091450AA5
:100B70008F5F8093450A8091250A9091260AA09163
:100B8000270AB091280A89839A83AB83BC8380911A
:100B9000FD099091FE09A091FF09B091000A809390
:100BA000250A9093260AA093270AB093280A8091D9
:100BB000440A882381F581E08093440A81E090E033
:100BC000A0E0B0E08093380A9093390AA0933A0AE3
:100BD000B0933B0A8091FD099091FE09A091FF0915
:100BE000B091000A8093090A90930A0AA0930B0A15
:100BF000B0930C0A8091FD099091FE09A091FF0924
:100C0000B091000A8093210A9093220AA093230AAC
:100C1000B093240AEFC08091380A9091390AA091CC
:100C20003A0AB0913B0A81309105A105B10531F036
:100C30000297A105B10509F48DC0ABC08091250ACA
:100C40009091260AA091270AB091280A9C01AD0133
:100C500069817A818B819C810E948140882309F47B
:100C6000C9C08091FD099091FE09A091FF09B09142
:100C7000000A20E030E040E85FE3BC01CD010E94C3
:100C80008140882329F581E090E0A0E0B0E08093E6
:100C9000380A9093390AA0933A0AB0933B0A80E04D
:100CA00090E0A0E8BFE38093090A90930A0AA0931A
:100CB0000B0AB0930C0A80E090E0A0E8BFE38093B9
:100CC000210A9093220AA093230AB093240A92C087
:100CD0008091FD099091FE09A091FF09B091000A51
:100CE00020E030E040E85FE3BC01CD010E9481409C
:100CF000882309F47FC082E090E0A0E0B0E0809318
:100D0000380A9093390AA0933A0AB0933B0A10929A
:100D1000450A8091FD099091FE09A091FF09B091CB
:100D2000000A8093090A90930A0AA0930B0AB093D1
:100D30000C0A8091FD099091FE09A091FF09B091E4
:100D4000000A8093210A9093220AA093230AB09369
:100D5000240A50C083E090E0A0E0B0E08093380A1D
:100D60009093390AA0933A0AB0933B0A1092450A2D
:100D70008091210A9091220AA091230AB091240A1D
:100D80008093090A90930A0AA0930B0AB0930C0A65
:100D900031C08091450A853060F181E090E0A0E0AB
:100DA000B0E08093380A9093390AA0933A0AB0933E
:100DB0003B0A8091FD099091FE09A091FF09B09135
:100DC000000A8093090A90930A0AA0930B0AB09331
:100DD0000C0A8091FD099091FE09A091FF09B09144
:100DE000000A8093210A9093220AA093230AB093C9
:100DF000240A00008091090A90910A0AA0910B0A26
:100E0000B0910C0ABC01CD010E94ED40DC01CB0188
:100E10008330910509F44BC08430910534F481305E
:100E2000910579F0029741F1AEC08530910509F442
:100E300074C0853091050CF455C0069709F488C03C
:100E4000A2C08091120390911303A0911403B0915A
:100E500015032091B6023091B7024091B80250912B
:100E6000B902BC01CD010E942742DC01CB0189837C
:100E70009A83AB83BC83A2C0809116039091170321
:100E8000A0911803B09119032091BA023091BB02CE
:100E90004091BC025091BD02BC01CD010E9427428D
:100EA000DC01CB0189839A83AB83BC8387C08091AB
:100EB0001A0390911B03A0911C03B0911D03209174
:100EC000BE023091BF024091C0025091C102BC01EC
:100ED000CD010E942742DC01CB0189839A83AB8339
:100EE000BC836CC080911E0390911F03A0912003CE
:100EF000B09121032091C2023091C3024091C402FB
:100F00005091C502BC01CD010E942742DC01CB01FA
:100F100089839A83AB83BC8351C0809122039091D3
:100F20002303A0912403B09125032091C6023091A0
:100F3000C7024091C8025091C902BC01CD010E9474
:100F40002742DC01CB0189839A83AB83BC8336C003
:100F50008091260390912703A0912803B091290343
:100F60002091CA023091CB024091CC025091CD0227
:100F7000BC01CD010E942742DC01CB0189839A8309
:100F8000AB83BC831BC080912A0390912B03A0915B
:100F90002C03B0912D032091CE023091CF024091CD
:100FA000D0025091D102BC01CD010E942742DC0148
:100FB000CB0189839A83AB83BC8300008091150A9F
:100FC0009091160AA091170AB091180A9C01AD01E0
:100FD00069817A818B819C810E940940DC01CB016F
:100FE0008D839E83AF83B8878091960390919703FA
:100FF000A0919803B09199032DEC3CEC4CEC5DE38F
:10100000BC01CD010E942742DC01CB019C01AD0156
:101010006D817E818F8198850E94234218164CF540
:101020008091960390919703A0919803B0919903B2
:101030002DEC3CEC4CEC5DE3BC01CD010E94274261
:10104000DC01CB017C018D018091150A9091160A7B
:10105000A091170AB091180A9C01AD01C801B7010F
:101060000E940A40DC01CB0189839A83AB83BC8355
:1010700044C080919A0390919B03A0919C03B091EE
:101080009D032DEC3CEC4CEC5DE3BC01CD010E94DA
:101090002742DC01CB019C01AD016D817E818F81F6
:1010A00098850E948140882344F580919A0390910D
:1010B0009B03A0919C03B0919D032DEC3CEC4CEC68
:1010C0005DE3BC01CD010E942742DC01CB017C0124
:1010D0008D018091150A9091160AA091170AB0917E
:1010E000180A9C01AD01C801B7010E940A40DC0149
:1010F000CB0189839A83AB83BC8389819A81AB813D
:10110000BC818093150A9093160AA093170AB09396
:10111000180A20E030E0A90169817A818B819C81E5
:101120000E948140882314F4198634C020E030E006
:1011300044E353E469817A818B819C810E9423423C
:1011400018161CF484EB898725C089819A81AB81AC
:10115000BC81BC01CD0171DADC01CB0189839A83AA
:10116000AB83BC8320E030E040E853E469817A81BE
:101170008B819C810E948140882354F469817A810B
:101180008B819C810E94F240DC01CB01898702C0E7
:101190008FEF8987698580E04FD98091090A909106
:1011A0000A0AA0910B0AB0910C0ABC01CD010E9461
:1011B000ED40DC01CB018330910509F453C084304C
:1011C000910534F48130910579F0029761F1C6C040
:1011D0008530910509F484C0853091050CF461C017
:1011E000069709F49CC0BAC080912E0390912F03FA
:1011F000A0913003B09131032091D2023091D302FB
:101200004091D4025091D502BC01CD010E942742E9
:10121000DC01CB018093010A9093020AA093030A98
:10122000B093040ABAC08091320390913303A09125
:101230003403B09135032091D6023091D70240910A
:10124000D8025091D902BC01CD010E942742DC0195
:10125000CB018093010A9093020AA093030AB093F2
:10126000040A9BC08091360390913703A091380304
:10127000B09139032091DA023091DB024091DC0217
:101280005091DD02BC01CD010E942742DC01CB015F
:101290008093010A9093020AA093030AB093040A70
:1012A0007CC080913A0390913B03A0913C03B091A4
:1012B0003D032091D2023091D3024091D40250914B
:1012C000D502BC01CD010E942742DC01CB018093F5
:1012D000010A9093020AA093030AB093040A5DC026
:1012E00080913E0390913F03A0914003B091410350
:1012F0002091D2023091D3024091D4025091D50274
:10130000BC01CD010E942742DC01CB018093010A80
:101310009093020AA093030AB093040A3EC08091FE
:10132000420390914303A0914403B091450320915F
:10133000DE023091DF024091E0025091E102BC01F7
:10134000CD010E942742DC01CB018093010A9093DA
:10135000020AA093030AB093040A1FC080914603B7
:1013600090914703A0914803B09149032091E20274
:101370003091E3024091E4025091E502BC01CD01BD
:101380000E942742DC01CB018093010A9093020A5C
:10139000A093030AB093040A00008091490A8330A5
:1013A00028F48091490A8F5F8093490A8091480A06
:1013B0008823E1F481E08093480A81E090E0A0E096
:1013C000B0E08093400A9093410AA093420AB09300
:1013D000430A80E090E0A4EBB2E48093110A90937A
:1013E000120AA093130AB093140AD4C08091400A41
:1013F0009091410AA091420AB091430A823091052E
:10140000A105B105C9F183309105A105B10509F424
:101410005DC00197A105B10509F090C08091010A56
:101420009091020AA091030AB091040A20E030E0F2
:1014300044EB52E4BC01CD010E94814088230CF0B2
:10144000A9C084E090E0A0E0B0E08093400A9093CF
:10145000410AA093420AB093430A1092490A80E0DD
:1014600090E0A0E7B2E48093110A9093120AA0934F
:10147000130AB093140A8EC08091490A8230C8F0D2
:1014800083E090E0A0E0B0E08093400A9093410AAE
:10149000A093420AB093430A80E090E0A0E7B2E450
:1014A0008093110A9093120AA093130AB093140A1E
:1014B00071C080E090E0A4EBB2E48093110A9093B5
:1014C000120AA093130AB093140A64C08091010A0F
:1014D0009091020AA091030AB091040A20E030E042
:1014E00044EB52E4BC01CD010E9423428823CCF09E
:1014F00081E090E0A0E0B0E08093400A9093410A40
:10150000A093420AB093430A80E090E0A4EBB2E4D7
:101510008093110A9093120AA093130AB093140AAD
:1015200039C080E090E0A0E7B2E48093110A909384
:10153000120AA093130AB093140A2CC08091490A8E
:101540008230D8F082E090E0A0E0B0E08093400AE2
:101550009093410AA093420AB093430A1092490A19
:1015600080E090E0A4EBB2E48093110A9093120A19
:10157000A093130AB093140A0CC080E090E0A0E797
:10158000B2E48093110A9093120AA093130AB093C5
:10159000140A00008091010A9091020AA091030AA6
:1015A000B091040A20910A0330910B0340910C037F
:1015B00050910D03BC01CD010E94234288236CF0A1
:1015C0008091010A9091020AA091030AB091040A45
:1015D00089839A83AB83BC830CC08091110A90915C
:1015E000120AA091130AB091140A89839A83AB83DB
:1015F000BC838091190A90911A0AA0911B0AB0919C
:101600001C0A9C01AD0169817A818B819C810E94B9
:101610000940DC01CB018D839E83AF83B887809125
:10162000A2039091A303A091A403B091A5032DEC74
:101630003CEC4CEC5DE3BC01CD010E942742DC0197
:10164000CB019C01AD016D817E818F8198850E94C7
:10165000234218164CF58091A2039091A303A09108
:10166000A403B091A5032DEC3CEC4CEC5DE3BC0174
:10167000CD010E942742DC01CB017C018D018091CC
:10168000190A90911A0AA0911B0AB0911C0A9C0198
:10169000AD01C801B7010E940A40DC01CB0189837A
:1016A0009A83AB83BC8344C08091A6039091A70327
:1016B000A091A803B091A9032DEC3CEC4CEC5DE3A8
:1016C000BC01CD010E942742DC01CB019C01AD0190
:1016D0006D817E818F8198850E948140882344F5A9
:1016E0008091A6039091A703A091A803B091A903AC
:1016F0002DEC3CEC4CEC5DE3BC01CD010E9427429B
:10170000DC01CB017C018D018091190A90911A0AAC
:10171000A0911B0AB0911C0A9C01AD01C801B70140
:101720000E940A40DC01CB0189839A83AB83BC838E
:1017300089819A81AB81BC818093190A90931A0A9E
:10174000A0931B0AB0931C0A20E030E0A901698134
:101750007A818B819C810E948140882314F41986B0
:1017600035C020E030E044E353E469817A818B8125
:101770009C810E94234218161CF484EB898726C0A2
:1017800089819A81AB81BC81BC01CD010E941D037E
:10179000DC01CB0189839A83AB83BC8320E030E0FA
:1017A00040E853E469817A818B819C810E94814069
:1017B000882354F469817A818B819C810E94F24054
:1017C000DC01CB01898702C08FEF8987698581E0C1
:1017D0000E941C028091090A90910A0AA0910B0AAA
:1017E000B0910C0ABC01CD010E94ED40DC01CB019F
:1017F0008330910509F453C08430910534F481306D
:10180000910579F0029761F1C6C08530910509F420
:1018100084C0853091050CF461C0069709F49CC022
:10182000BAC080914A0390914B03A0914C03B091B0
:101830004D032091E6023091E7024091E802509179
:10184000E902BC01CD010E942742DC01CB0180935B
:10185000050A9093060AA093070AB093080ABAC033
:1018600080914E0390914F03A0915003B09151038A
:101870002091EA023091EB024091EC025091ED028E
:10188000BC01CD010E942742DC01CB018093050AF7
:101890009093060AA093070AB093080A9BC0809110
:1018A000520390915303A0915403B091550320919A
:1018B000EE023091EF024091F0025091F102BC0132
:1018C000CD010E942742DC01CB018093050A909351
:1018D000060AA093070AB093080A7CC080915603B9
:1018E00090915703A0915803B09159032091E602BB
:1018F0003091E7024091E8025091E902BC01CD012C
:101900000E942742DC01CB018093050A9093060ACE
:10191000A093070AB093080A5DC080915A03909182
:101920005B03A0915C03B0915D032091E6023091CE
:10193000E7024091E8025091E902BC01CD010E940A
:101940002742DC01CB018093050A9093060AA093FD
:10195000070AB093080A3EC080915E0390915F032E
:10196000A0916003B09161032091F2023091F302E3
:101970004091F4025091F502BC01CD010E94274232
:10198000DC01CB018093050A9093060AA093070A15
:10199000B093080A1FC08091620390916303A091E5
:1019A0006403B09165032091F6023091F7024091F3
:1019B000F8025091F902BC01CD010E942742DC01DE
:1019C000CB018093050A9093060AA093070AB0936F
:1019D000080A00008091470A833028F48091470A62
:1019E0008F5F8093470A8091460A8823E1F481E063
:1019F0008093460A81E090E0A0E0B0E080933C0A4A
:101A000090933D0AA0933E0AB0933F0A80E090E095
:101A1000A4EBB2E480930D0A90930E0AA0930F0AF0
:101A2000B093100AD4C080913C0A90913D0AA091D5
:101A30003E0AB0913F0A82309105A105B105C9F176
:101A400083309105A105B10509F45DC00197A10599
:101A5000B10509F090C08091050A9091060AA09105
:101A6000070AB091080A20E030E044EB52E4BC01E0
:101A7000CD010E94814088230CF0A9C084E090E051
:101A8000A0E0B0E080933C0A90933D0AA0933E0A08
:101A9000B0933F0A1092470A80E090E0A0E7B2E4DA
:101AA00080930D0A90930E0AA0930F0AB093100A28
:101AB0008EC08091470A8230C8F083E090E0A0E0B9
:101AC000B0E080933C0A90933D0AA0933E0AB09305
:101AD0003F0A80E090E0A0E7B2E480930D0A909383
:101AE0000E0AA0930F0AB093100A71C080E090E034
:101AF000A4EBB2E480930D0A90930E0AA0930F0A10
:101B0000B093100A64C08091050A9091060AA091D2
:101B1000070AB091080A20E030E044EB52E4BC012F
:101B2000CD010E9423428823CCF081E090E0A0E028
:101B3000B0E080933C0A90933D0AA0933E0AB09394
:101B40003F0A80E090E0A4EBB2E480930D0A90930A
:101B50000E0AA0930F0AB093100A39C080E090E0FB
:101B6000A0E7B2E480930D0A90930E0AA0930F0AA7
:101B7000B093100A2CC08091470A8230D8F082E0DE
:101B800090E0A0E0B0E080933C0A90933D0AA093DF
:101B90003E0AB0933F0A1092470A80E090E0A4EB1F
:101BA000B2E480930D0A90930E0AA0930F0AB093AB
:101BB000100A0CC080E090E0A0E7B2E480930D0A28
:101BC00090930E0AA0930F0AB093100A0000809120
:101BD000050A9091060AA091070AB091080A20917F
:101BE0000E0330910F034091100350911103BC017B
:101BF000CD010E94234288236CF08091050A9091C8
:101C0000060AA091070AB091080A89839A83AB83D8
:101C1000BC830CC080910D0A90910E0AA0910F0A0E
:101C2000B091100A89839A83AB83BC8380911D0A8B
:101C300090911E0AA0911F0AB091200A9C01AD014B
:101C400069817A818B819C810E940940DC01CB01F2
:101C50008D839E83AF83B8878091AE039091AF034D
:101C6000A091B003B091B1032DEC3CEC4CEC5DE3E2
:101C7000BC01CD010E942742DC01CB019C01AD01DA
:101C80006D817E818F8198850E94234218164CF5C4
:101C90008091AE039091AF03A091B003B091B103D6
:101CA0002DEC3CEC4CEC5DE3BC01CD010E942742E5
:101CB000DC01CB017C018D0180911D0A90911E0AEF
:101CC000A0911F0AB091200A9C01AD01C801B70183
:101CD0000E940A40DC01CB0189839A83AB83BC83D9
:101CE00044C08091B2039091B303A091B403B0912A
:101CF000B5032DEC3CEC4CEC5DE3BC01CD010E9446
:101D00002742DC01CB019C01AD016D817E818F8179
:101D100098850E948140882344F58091B203909178
:101D2000B303A091B403B091B5032DEC3CEC4CECA3
:101D30005DE3BC01CD010E942742DC01CB017C01A7
:101D40008D0180911D0A90911E0AA0911F0AB091E9
:101D5000200A9C01AD01C801B7010E940A40DC01C4
:101D6000CB0189839A83AB83BC8389819A81AB81C0
:101D7000BC8180931D0A90931E0AA0931F0AB09302
:101D8000200A20E030E0A90169817A818B819C8161
:101D90000E948140882314F4198635C020E030E089
:101DA00044E353E469817A818B819C810E942342C0
:101DB00018161CF484EB898726C089819A81AB812F
:101DC000BC81BC01CD010E941D03DC01CB018983D4
:101DD0009A83AB83BC8320E030E040E853E4698120
:101DE0007A818B819C810E948140882354F469818F
:101DF0007A818B819C810E94F240DC01CB01898732
:101E000002C08FEF8987698582E00E941C0281E011
:101E100090E00E94A02785E895E0FC0186899789DB
:101E2000A08DB18DAC01BD0180E090E00E947527CE
:101E300085E895E0FC0182A193A1A4A1B5A120E0D1
:101E400030E040E85FEBBC01CD010E948140882377
:101E5000E1F185E895E0FC0182A193A1A4A1B5A1DF
:101E600025E835E0F90126893789408D518DBC017F
:101E7000CD010E940940DC01CB016C017D0185E8A8
:101E800095E0FC0186899789A08DB18D20E030E036
:101E900040E054E3BC01CD010E942742DC01CB01AC
:101EA00011E09C01AD01C701B6010E942342181642
:101EB0000CF010E081E08127882339F085E895E077
:101EC0002BEE34E0FC013183208385E895E0FC01B2
:101ED00086A1882339F085E895E02BEE34E0FC01FB
:101EE0003183208325E835E0F901828D938DA48D1F
:101EF000B58D0196A11DB11DF901828F938FA48F1D
:101F0000B58FF901828D938DA48DB58DBC01CD0166
:101F10000E941E416B017C0185E895E0FC01868DE5
:101F2000978DA0A1B1A105E815E09C01AD01C70105
:101F3000B6010E942742DC01CB01F801868B978B0A
:101F4000A08FB18F000062960FB6F894DEBF0FBE6F
:101F5000CDBFDF91CF911F910F91FF90EF90DF9058
:101F6000CF900895CF93DF93CDB7DEB725E835E066
:101F700080E090E0A0E8BFEBF90182A393A3A4A3C3
:101F8000B5A325E835E08DEC9CECACECBDE3F901A4
:101F9000868F978FA0A3B1A325E835E083E393E56F
:101FA000ACECB8EDF90184839583A683B78325E86B
:101FB00035E088EC96E2ACE1B4ECF90180879187DA
:101FC000A287B38725E835E08EEA9EE5A1E3BDE967
:101FD000F90184879587A687B78725E835E088EFDC
:101FE0009EEAAAEEB3E6F901808B918BA28BB38BAC
:101FF00085E895E02CEA35E0FC013383228388EB09
:1020000095E09093AD058093AC058BE495E09093BB
:10201000B9058093B8058BE495E09093BB05809358
:10202000BA058BE495E09093BD058093BC058BE4E5
:1020300095E09093BF058093BE058BE495E0909367
:10204000C1058093C0058BE495E09093C305809310
:10205000C2058BE495E09093C5058093C4058BE49D
:1020600095E09093C7058093C6058BE495E0909327
:10207000C9058093C8058BE495E09093CB058093C8
:10208000CA058BE495E09093CD058093CC058BE455
:1020900095E09093CF058093CE058BE495E09093E7
:1020A000D1058093D0058BE495E09093D305809380
:1020B000D2058BE495E09093D5058093D4058BE40D
:1020C00095E09093D7058093D6058BE495E09093A7
:1020D000D9058093D8058BE495E09093DB05809338
:1020E000DA058BE495E09093DD058093DC058BE4C5
:1020F00095E09093DF058093DE058BE495E0909367
:10210000E1058093E0058BE495E09093E3058093EF
:10211000E2058BE495E09093E5058093E4058BE47C
:1021200095E09093E7058093E6058BE495E0909326
:10213000E9058093E8058BE495E09093EB058093A7
:10214000EA058BE495E09093ED058093EC058BE434
:1021500095E09093EF058093EE058BE495E09093E6
:10216000F1058093F0058BE495E09093F30580935F
:10217000F2058BE495E09093F5058093F4058BE4EC
:1021800095E09093F7058093F6058BE495E09093A6
:10219000F9058093F8058BE495E09093FB05809317
:1021A000FA058BE495E09093FD058093FC058BE4A4
:1021B00095E09093FF058093FE058BE495E0909366
:1021C0000106809300068BE495E0909303068093CC
:1021D00002068BE495E090930506809304068BE459
:1021E00095E090930706809306068BE495E0909324
:1021F0000906809308068BE495E090930B06809384
:102200000A068BE495E090930D0680930C068BE410
:1022100095E090930F0680930E068BE495E09093E3
:102220001106809310068BE495E09093130680933B
:10223000120625E835E085E895E0FC01828193816E
:102240002C5E3F4FFC013583248325E835E085E88B
:1022500095E0FC01828193812C5F3F4FFC01338329
:10226000228325E835E085E895E0FC0182819381B1
:102270002A5E3F4FFC013783268344E150E060E053
:1022800070E084E196E00E94E25585E895E024E163
:1022900036E0FC01358B248B86E190E090931506A7
:1022A0008093140686E092E09093170680931606BA
:1022B00082E392E0909319068093180686E892E0F4
:1022C00090931B0680931A068AEA92E090931D066B
:1022D00080931C0680919E0390919F03A091A00380
:1022E000B091A1038093150A9093160AA093170A40
:1022F000B093180A8091AA039091AB03A091AC030C
:10230000B091AD038093190A90931A0AA0931B0A07
:10231000B0931C0A8091B6039091B703A091B803C3
:10232000B091B90380931D0A90931E0AA0931F0ACF
:10233000B093200A81E090E0A0E0B0E080932E0A04
:1023400090932F0AA093300AB093310A62E08AE09A
:102350000E9478021092320A81E090E0A0E0B0E0A2
:102360008093330A9093340AA093350AB093360AC7
:102370006CE086E00E9478021092370A81E090E0DB
:10238000A0E0B0E08093290A90932A0AA0932B0A38
:10239000B0932C0A69E08BE00E94780210922D0A1B
:1023A00063E080E00E94FE0165E081E00E94FE01A2
:1023B00064E082E00E94FE010000DF91CF91089569
:1023C000CF93DF93CDB7DEB70000DF91CF910895B3
:1023D000CF93DF93CDB7DEB7E6970FB6F894DEBFA5
:1023E0000FBECDBF9CAB8BAB7EAB6DAB8DA99EA959
:1023F0009C838B831E821D8281E090E098878F836F
:1024000082E090E09A87898783E090E09C878B87C1
:1024100080E190E09E878D878BA99CA9FC01848137
:102420009581FC0180819181988B8F878F85988918
:10243000FC01808591859A8B898B8F859889FC0119
:10244000828193819C8B8B8B8B819C81FC01808111
:102450009181A281B3818F8F98A3A9A3BAA38B8105
:102460009C8104969C838B831A821982D7C04D85E8
:102470005E852B813C81CE018396B9010E94D9559E
:102480008D859E852B813C81820F931F9C838B833E
:1024900089899A89FC01228133818D819E81880FEF
:1024A000991F880F991FAE014F5F5F4F840F951FD3
:1024B0008296FC0180819181A281B381880F991F4E
:1024C000880F991F880F991F820F931FFC0180812D
:1024D00091819E8B8D8B89899A89FC012281338120
:1024E0008D819E81880F991F880F991FAE014F5FC4
:1024F0005F4F840F951F8296FC0180819181A2819C
:10250000B381880F991F880F991F880F991F820F19
:10251000931FFC0184819581988F8F8B8B859C857F
:10252000880F991F880F991F9E012F5F3F4F820FC1
:10253000931F8296FC0180819181A281B381880FD3
:10254000991F2B893C89820F931FFC014081518187
:102550008F89988D892B19F082E090E002C081E08C
:1025600090E0849F9001859F300D949F300D112441
:102570003A8F298F89859A85880F991F880F991F0F
:102580009E012F5F3F4F820F931F8296FC01808137
:102590009181A281B381AC01298D3A8D429FC00106
:1025A000439F900D529F900D11249C8F8B8F8F8194
:1025B0009885880F991F880F991F9E012F5F3F4FA5
:1025C000820F931F8296FC0180819181A281B38149
:1025D000AC01298D3A8D429FC001439F900D529FBF
:1025E000900D11242D893E89820F931F9E8F8D8F10
:1025F0004B8D5C8D2B813C818D8D9E8DB9010E9410
:10260000D9558B8D9C8D2B813C81820F931F9C8390
:102610008B8389819A8101969A83898389819A81A2
:102620009C01990F440B550B8F8D98A1A9A1BAA1BC
:10263000281739074A075B070CF419CF0000E69604
:102640000FB6F894DEBF0FBECDBFDF91CF910895D6
:10265000CF93DF93CDB7DEB76E970FB6F894DEBF9A
:102660000FBECDBF9A8F898F7C8F6B8F5E8F4D8F02
:10267000898D9A8DFC0184819581FC0180819181F5
:102680009A83898389819A81FC01868197819C83C1
:102690008B8389819A81FC01828193819E838D83C2
:1026A00018861F8281E090E09A87898782E090E017
:1026B0009C878B8783E090E09E878D878B819C81B0
:1026C000FC01228133818F819885880F991F880FA3
:1026D000991F4B8D5C8D840F951FFC01808191812A
:1026E000A281B381880F991F880F991F880F991FA6
:1026F000820F931FFC0180819181988B8F878B8142
:102700009C81FC01228133818F819885880F991FDC
:10271000880F991F4B8D5C8D840F951FFC01808164
:102720009181A281B381880F991F880F991F880F0B
:10273000991F820F931FFC01848195819A8B898B4D
:102740008D859E85880F991F880F991F2B8D3C8D35
:10275000820F931FFC0180819181A281B381880F38
:10276000991F2D813E81820F931FFC014081518171
:1027700089899A89892B19F082E090E002C081E072
:1027800090E0849F9001859F300D949F300D11241F
:102790003C8B2B8B8B859C85880F991F880F991FED
:1027A0002B8D3C8D820F931FFC0180819181A28132
:1027B000B381AC012B893C89429FC001439F900D9E
:1027C000529F900D11249E8B8D8B89859A85880F41
:1027D000991F880F991F2B8D3C8D820F931FFC0131
:1027E00080819181A281B381AC012B893C89429F78
:1027F000C001439F900D529F900D1124988F8F8B95
:102800008F89988D2F853889280F391F8D8D9E8D42
:10281000FC01318320838D8D9E8D2D893E89FC01A5
:102820003383228300006E960FB6F894DEBF0FBE8E
:10283000CDBFDF91CF9108950F931F93CF93DF9377
:10284000CDB7DEB7E1970FB6F894DEBF0FBECDBFB0
:102850009BA78AA77DA76CA75FA74EA739AB28AB1C
:1028600088A999A9FC01808191819C838B831D8219
:102870008B819C81FC0180819181A281B3818A8BB3
:102880009B8BAC8BBD8B8B819C8104969C838B83B3
:102890008AA59BA5FC01208131818A899B89AC890D
:1028A000BD89880F991F820F931FFC012081318100
:1028B0008EA59FA5FC01318320838B819C81FC0127
:1028C00080819181A281B3818E879F87A88BB98BEC
:1028D0008B819C8104969C838B838CA59DA562E053
:1028E00070E00E9496549C018EA59FA5FC01338345
:1028F00022838EA59FA5FC0182819381892B19F4E7
:1029000081E08D83F6C01A821982E2C08B819C819E
:10291000FC0180819181A281B3818E8B9F8BA88FD6
:10292000B98F8B819C8104969C838B838EA59FA5F8
:10293000FC01228133818E899F89A88DB98D880FF2
:10294000991F8901080F191F68E070E081E090E08D
:102950000E949654F801918380838EA59FA5FC0167
:10296000228133818E899F89A88DB98D880F991F07
:10297000820F931FFC0180819181892B19F481E0E2
:102980008D83B7C08EA59FA5FC01228133818E89DE
:102990009F89A88DB98D880F991F820F931FFC0105
:1029A000808191819B878A878A859B852B813C8149
:1029B00044E050E0B9010E94D9558B819C81049676
:1029C0009C838B838A859B85FC0180819181A28178
:1029D000B381181619061A061B06E4F48A859B852E
:1029E000FC0180819181A281B38164E070E00E944A
:1029F00096549C018A859B85FC01358324838A85B6
:102A00009B85FC0184819581892B21F481E08D8354
:102A100000006FC01E821F821886198643C08A85F7
:102A20009B85FC01248135818E819F81880F991FB0
:102A3000880F991F820F931F9D878C878B819C81A4
:102A400020E1FC01DE015A9601900D922A95E1F7F2
:102A50008B819C8140969C838B834C855D859E01F8
:102A6000265E3F4F8AA59BA5B901F2DD8A859B852D
:102A7000FC01268137818C859D85FC0182819381B3
:102A8000280F391F8A859B85FC01378326838E8119
:102A90009F81A885B9850196A11DB11D8E839F8355
:102AA000A887B9878A859B85FC0180819181A28155
:102AB000B3812E813F8148855985281739074A07F8
:102AC0005B070CF4ACCF89819A8101969A83898344
:102AD00089819A819C01990F440B550B8E859F85A6
:102AE000A889B989281739074A075B070CF40ECF64
:102AF000000088A999A92B813C81FC0131832083A6
:102B00008D81E1960FB6F894DEBF0FBECDBFDF9189
:102B1000CF911F910F910895CF93DF9300D000D0F4
:102B20001F92CDB7DEB79B838A834C835D836E8310
:102B30007F8319828C819D81AE81BF81BB231CF470
:102B400081E0898349C08A819B8121E030E0FC01DA
:102B5000318320838C819D81AE81BF811816190637
:102B60001A061B06A4F48C819D810E94B0549C011E
:102B70008A819B81FC01358324838A819B81FC01AE
:102B800084819581892B41F481E0898325C08A81E4
:102B90009B81FC01158214822C813D818A819B815D
:102BA000FC01338322838A819B81FC01248135814E
:102BB0008A819B81FC01378326838A819B81FC016A
:102BC000248135818A819B81FC01318720878A811C
:102BD0009B81FC0113861286898127960FB6F89493
:102BE000DEBF0FBECDBFDF91CF910895CF93DF93AE
:102BF00000D000D000D01F92CDB7DEB76F837887AA
:102C000089879A872F81388544E4429FC001439F7A
:102C1000900D1124875D994F9A83898389819A81C8
:102C200042969C838B838B819C814C969E838D8363
:102C30008D819E81FC0184819581892B61F08D813C
:102C40009E81FC01848195810E944C558D819E81DD
:102C5000FC01158214828B819C81FC0184A195A1C9
:102C6000892B61F08B819C81FC0184A195A10E943C
:102C70004C558B819C81FC0115A214A28B819C81F7
:102C8000FC01118210828B819C81FC0114821582CF
:102C9000168217828B819C81FC0110861186128618
:102CA00013868B819C81FC011486158616861786F7
:102CB0008B819C8121E030E0FC01318B208B8B816A
:102CC0009C81FC01138A128A8B819C81FC01148AED
:102CD000158A168A178A8B819C81FC01118E108EB1
:102CE0008B819C81FC01138E128E8B819C81FC0157
:102CF000148E158E168E178E8B819C81FC0111A26D
:102D000010A28B819C81FC0113A212A28B819C8159
:102D1000FC0115A214A28B819C81FC0117A216A2B2
:102D20008B819C81FC0110A611A612A613A68B8193
:102D30009C81FC0114A615A616A617A68B819C8162
:102D4000FC0111AA10AA00002A960FB6F894DEBF63
:102D50000FBECDBFDF91CF910895CF93DF9300D009
:102D600000D0CDB7DEB76B837C838D839E832B81B0
:102D70003C8144E4429FC001439F900D1124875D34
:102D8000994F9A8389838B819C8186549C4FFC0147
:102D90008081882371F089819A8144E450E060E069
:102DA00070E00E94E2558B819C8186549C4FFC010F
:102DB000108289819A81FC01148215821682178201
:102DC00089819A81FC011186108689819A81FC0192
:102DD0001386128689819A81FC01118A108A898161
:102DE0009A81FC01178616868B819C81AD81BE81FC
:102DF000BC01CD01FBDE000026960FB6F894DEBFC5
:102E00000FBECDBFDF91CF910895CF93DF93CDB7A4
:102E1000DEB72E970FB6F894DEBF0FBECDBF698721
:102E20007A878B879C875E874D8729853A8544E41E
:102E3000429FC001439F900D1124875D994F9E834F
:102E40008D838D819E81FC0184819581A681B781CE
:102E5000892B8A2B8B2B09F4C4C01A82198254C087
:102E60008D819E81FC012085318589819A81880F21
:102E7000991F880F991F820F931FFC0182819381F4
:102E800098878F831C821B822FC08B819C81880F27
:102E9000991F2F813885820F931FFC0180819181BA
:102EA000892BE9F08B819C81880F991F2F813885B0
:102EB000820F931FFC0180819181FC0184819581A7
:102EC0000E944C558B819C81880F991F2F813885DA
:102ED000820F931FFC01808191810E944C558B8150
:102EE0009C8101969C838B832B813C818D859E8563
:102EF0002817390754F28F8198850E944C55898193
:102F00009A8101969A83898389819A819C01990F7C
:102F1000440B550B8D819E81FC0184819581A68196
:102F2000B781281739074A075B070CF499CF8D81C1
:102F30009E81FC01808591850E944C558D819E81EA
:102F4000FC0182859385892B79F11A8219821EC032
:102F50008D819E81FC014285538529813A81C90179
:102F6000880F991F880F991F880F991F821B930B39
:102F7000880F991F840F951FFC01848195810E9401
:102F80004C5589819A8101969A83898329813A8156
:102F90008D859E8528173907DCF28D819E81FC0185
:102FA000828593850E944C558D819E81FC0180898C
:102FB00091890E944C558D819E81FC018685978563
:102FC0000E944C5589859A85AB85BC85BC01CD0195
:102FD0000DDE89859A85AB85BC85BC01CD01BDDE42
:102FE00001C000002E960FB6F894DEBF0FBECDBF15
:102FF000DF91CF910895CF93DF9300D000D0CDB76C
:10300000DEB76B837C838D839E832B813C8144E47C
:10301000429FC001439F900D1124875D994F9A8371
:10302000898389819A81FC01828993898430910501
:10303000A0F0069798F489819A8125E030E0FC01A0
:10304000338B228B29813A818FEF9FEFDC01F901CD
:10305000828F938FA48FB58F01C000000000269649
:103060000FB6F894DEBF0FBECDBFDF91CF910895AC
:103070000F931F93CF93DF93CDB7DEB767970FB64C
:10308000F894DEBF0FBECDBF9F878E87798B688B8C
:103090005B8B4A8B0C8B1D8B2E8B3F8B1D828A8901
:1030A0009B89998788872C893D8944E4429FC00188
:1030B000439F900D1124875D994F9F838E832E81AE
:1030C0003F818C899D89AE89BF89F9018083918375
:1030D000A283B383288939898C899D89AE89BF8968
:1030E000A901BC01CD0191DE288539858E819F81A2
:1030F000049644E050E0B9010E94D955888599852D
:103100000496998788878E819F81FC0184819581AF
:10311000A681B78164E070E00E9496549C018E8184
:103120009F81DC0119963C932E9318978E819F8185
:10313000FC0180859185892B19F481E08D83D7C0AE
:103140001C821B8221C08E819F81DC0118962D91EB
:103150003C918B819C81880F991F880F991FA90131
:10316000480F591F9E01285F3F4F688979898E85D6
:103170009F8562DB8D838D81882309F0B3C08B81AD
:103180009C8101969C838B838B819C819C01990FF0
:10319000440B550B8E819F81FC0184819581A68112
:1031A000B781281739074A075B076CF28889998924
:1031B0006EE070E00E9496549C018E819F81DC013C
:1031C0001B963C932E931A971A8219821C821B829B
:1031D00048C088859985FC0180819181A281B38155
:1031E0008A879B87AC87BD87888599850496998750
:1031F00088872A853B854C855D858E819F81DC0192
:103200001A96ED91FC916B817C81CB01880F991FFF
:10321000880F991F880F991F861B970B880F991F7E
:103220008E0F9F1FBA01A90177DC8D838D818823C2
:1032300009F05AC08A859B85AC85BD8521E0892B24
:103240008A2B8B2B09F420E0822F90E029813A8190
:10325000820F931F9A8389838B819C8101969C8323
:103260008B832B813C8188899989281739070CF435
:10327000B0CF8E819F81FC011586148689819A8149
:10328000880F991F880F991F880F991F0E94B054AB
:103290009C018E819F81DC0151963C932E93509727
:1032A0008E819F81FC0180899189892B19F481E0AD
:1032B0008D831DC089819A81880F991F0E94B05407
:1032C0009C018E819F81DC011F963C932E931E975B
:1032D0008E819F81FC0186859785892B39F481E059
:1032E0008D8305C0000003C0000001C000008D8177
:1032F000882351F0288939898C899D89AE89BF89B5
:10330000A901BC01CD0181DD8D8167960FB6F894CE
:10331000DEBF0FBECDBFDF91CF911F910F910895FA
:10332000CF93DF93CDB7DEB7AD970FB6F894DEBF7E
:103330000FBECDBF9FA38EA379A768A72AA73BA7DF
:103340004CA75DA7198288A599A59B838A832AA586
:103350003BA544E4429FC001439F900D1124429637
:10336000875D994F9F838E838A819B81FC01808139
:103370009181A281B3818E879F87A88BB98B8A8127
:103380009B8104969B838A838E859F85A889B989B2
:103390009C018E819F81FC01338322838E819F81DA
:1033A00004962A813B8144E050E0B9010E94D9553E
:1033B0008A819B8104969B838A838E819F81089654
:1033C0002A813B8144E050E0B9010E94D9558A81AD
:1033D0009B8104969B838A838E819F810C962A8190
:1033E0003B8144E050E0B9010E94D9558A819B811C
:1033F00004969B838A838E819F814C962A813B8190
:1034000044E050E0B9010E94D9558A819B8104961D
:103410009B838A838E819F81FC01848D958DA68DEF
:10342000B78D9987888788859985181619060CF0B5
:1034300087C08E819F814C969B878A8788859985D6
:10344000880F991F880F991F0E94B0549C018A858C
:103450009B85FC01358324838A859B85FC018481BF
:103460009581892B19F481E08983EAC01D821C8231
:103470003DC08A859B85FC01248135818C819D819D
:10348000880F991F880F991F820F931F9D878C8724
:103490008A819B8120E1FC01DE01569601900D920C
:1034A0002A95E1F78A819B8140969B838A834C858C
:1034B0005D859E012A5E3F4F8EA19FA1B901C8D8AC
:1034C0008A859B85FC01268137818C859D85FC0141
:1034D00082819381280F391F8A859B85FC01378360
:1034E00026838C819D8101969D838C838C819D8117
:1034F0009C01990F440B550B8A859B85FC018081AB
:103500009181A281B381281739074A075B070CF420
:10351000B0CF8A859B85FC01868197810E94B0543B
:103520009C018E819F81FC0135A324A38E819F8104
:10353000FC0184A195A1892B19F481E0898380C0C5
:103540008A819B81FC0180819181A281B3818A8BD8
:103550009B8BAC8BBD8B8A819B8104969B838A83DA
:103560008A899B89AC89BD89892B8A2B8B2B41F059
:103570008A899B89AC89BD890297A105B10519F497
:1035800081E090E002C080E090E02E813F81F9016F
:10359000918B808B8A899B89AC89BD890197A10514
:1035A000B10541F08A899B89AC89BD890297A10543
:1035B000B10519F481E090E002C080E090E02E8136
:1035C0003F81F901938B828B8E819F8144962A8162
:1035D0003B8144E050E0B9010E94D9558A819B812A
:1035E00004969B838A838E819F81FC0184859585C7
:1035F000A685B785BB23ECF48E819F81FC01848571
:103600009585A685B785B095A095909581959F4F96
:10361000AF4FBF4F2E813F81F90180A791A7A2A78D
:10362000B3A78E819F81FC011486158616861786A6
:1036300007C08E819F81FC0110A611A612A613A6B9
:103640008981882339F08AA59BA5ACA5BDA5BC01BD
:10365000CD01CCDA8981AD960FB6F894DEBF0FBEEE
:10366000CDBFDF91CF910895CF93DF93CDB7DEB774
:103670002C970FB6F894DEBF0FBECDBF6F8378874F
:1036800089879A875C874B872F81388544E4429FDE
:10369000C001439F900D1124875D994F9C838B83BC
:1036A000109228068B819C81FC0115A614A61A8213
:1036B000198243C08B819C81FC01428553852981FD
:1036C0003A81C901880F991F880F991F880F991F88
:1036D000821B930B880F991F840F951F9E838D83E8
:1036E0008D819E81FC01828193811816190604F553
:1036F0008D819E81FC01248135818D819E81FC011B
:10370000378326838D819E81FC01248135818D81C3
:103710009E81FC01318720878D819E81FC0113866B
:1037200012868D819E8121E030E0FC01318320836F
:1037300089819A8101969A83898329813A818B852F
:103740009C85281739070CF4B5CF8B819C81FC012F
:1037500013A612A68B819C81FC0111AE10AE8B8149
:103760009C81CE96FC0110821182128213828B8181
:103770009C8122E030E0FC01338B228B00002C96F0
:103780000FB6F894DEBF0FBECDBFDF91CF91089585
:10379000CF93DF9300D000D01F921F92CDB7DEB73A
:1037A0006B837C838D839E8358874F832B813C81E1
:1037B00044E4429FC001439F900D1124875D994FBF
:1037C0009A83898389819A81FC01138A128A2F81C5
:1037D00038858B819C81AD81BE81A901BC01CD0161
:1037E00014DB000028960FB6F894DEBF0FBECDBFE5
:1037F000DF91CF910895CF93DF9300D000D0CDB764
:10380000DEB76B837C838D839E832B813C8144E474
:10381000429FC001439F900D1124875D994F9A8369
:10382000898389819A81FC018289938985309105F8
:1038300018F4019720F420C0059799F01DC0298144
:103840003A818FEF9FEFDC01F901828F938FA48F74
:10385000B58F89819A8125E030E0FC01338B228B82
:103860000BC029813A818FEF9FEFDC01F901828F34
:10387000938FA48FB58F0000000026960FB6F894A2
:10388000DEBF0FBECDBFDF91CF910895CF93DF9301
:1038900000D000D000D01F92CDB7DEB79E838D83BD
:1038A0004F83588769877A872F81388544E4429F00
:1038B000C001439F900D1124875D994F9A8389839E
:1038C00089819A81FC01428553852D813E81C90100
:1038D000880F991F880F991F880F991F821B930BC0
:1038E000880F991F840F951F9C838B8381E08093A1
:1038F00028068B819C81FC01228533858B819C81EC
:10390000FC01318720878B819C81FC0120853185DA
:103910008B819C81FC018681978141E028173907C2
:1039200009F040E0242F30E08B819C81FC01318341
:10393000208300002A960FB6F894DEBF0FBECDBFDD
:10394000DF91CF910895CF93DF93CDB7DEB72D9759
:103950000FB6F894DEBF0FBECDBF9F838E837987ED
:1039600068875B874A873D872C8719828E819F8174
:10397000FC01848195812E813F81F901228133816F
:10398000820F931F9B838A838A859B85FC012081FC
:1039900031818E819F81FC018085918582179307FB
:1039A00040F08E819F81FC0180819181892B09F4F7
:1039B000AFC08A819B812A853B85F90120813181B5
:1039C000AC01421B530B9A018E819F81FC018085C3
:1039D0009185AC018E819F81FC0184819581BA0122
:1039E000681B790BCB01820F931F9D838C832C81E5
:1039F0003D8188859985281739071CF481E08983E2
:103A0000CBC08A859B85FC01208131818885998581
:103A1000820F931F2A813B818217930750F58C8573
:103A20009D8528853985FC01318320838A859B8586
:103A3000FC01208131818C859D85FC0133832283AB
:103A40008C859D85FC01158214828C859D85FC01E9
:103A5000178216828A859B85FC01208131818885A9
:103A60009985280F391F8A859B85FC013183208326
:103A700093C08A819B812A853B85F9012081318110
:103A8000AC01421B530B9A018C859D85FC0131834F
:103A900020838A859B85FC01208131818C859D85D1
:103AA000FC01338322838C859D85FC01808191817B
:103AB00028853985281B390B8C859D85FC0135832C
:103AC00024838C859D85FC018481958118161906B7
:103AD00034F48E819F81FC018481958102C080E055
:103AE00090E02C853D85F901978386838E819F81A7
:103AF000FC01848195812C853D85F90124813581E6
:103B0000280F391F8A859B85FC013183208344C09F
:103B10008E819F81FC01808591859C018A859B8592
:103B2000FC0180819181A901481B590BCA019D8329
:103B30008C832C813D8188859985281739071CF451
:103B400081E0898329C08C859D8528853985FC0184
:103B5000318320838A859B85FC01208131818C857E
:103B60009D85FC01338322838C859D85FC01158214
:103B700014828C859D85FC01178216828A859B851F
:103B8000FC012081318188859985280F391F8A851C
:103B90009B85FC013183208389812D960FB6F89493
:103BA000DEBF0FBECDBFDF91CF910895CF93DF93DE
:103BB000CDB7DEB76A970FB6F894DEBF0FBECDBFA4
:103BC0006F8B788F898F9A8F2F89388D44E4429F2D
:103BD000C001439F900D1124875D994F98878F8373
:103BE0008F81988542969A87898789859A85FC0175
:103BF00084A195A19C878B878B859C859C838B83D7
:103C00001A82198241C189859A85FC0120A131A1BE
:103C100089819A81880F991F880F991F820F931F9E
:103C20009E878D878D859E85FC01828193819695E7
:103C3000879596958795988B8F8789859A85FC01BE
:103C400086A197A1892B09F4FEC089859A85FC017C
:103C500084899589A689B789898B9A8BAB8BBC8B14
:103C60008D859E85FC01808191819E8B8D8B1E822E
:103C70001D82E1C089859A85FC0180899189892B03
:103C800009F466C08D819E81880F991F880F991F46
:103C90002D893E89820F931FFC0180819181A28131
:103CA000B3819C01AD0169897A898B899C890E94C5
:103CB00081401816CCF08D819E81880F991F880F46
:103CC000991F2B813C81820F931FFC018081918180
:103CD000A281B3819C01AD0169897A898B899C8914
:103CE0000E942342181694F18D819E81880F991F9E
:103CF000880F991F2D893E89820F931FFC018081B7
:103D00009181A281B3819C01AD0169897A898B89F6
:103D10009C890E9481408823DCF48D819E81880FDC
:103D2000991F880F991F2B813C81820F931FFC01E3
:103D300080819181A281B3819C01AD0169897A89D9
:103D40008B899C890E948140882311F481E0B7C04F
:103D500089859A85FC0182899389892B09F466C03B
:103D60008D819E81880F991F880F991F2D893E890B
:103D7000820F931FFC0180819181A281B3819C01FC
:103D8000AD0169897A898B899C890E942342181622
:103D9000CCF48D819E81880F991F880F991F2B81EC
:103DA0003C81820F931FFC0180819181A281B381AC
:103DB0009C01AD0169897A898B899C890E94814027
:103DC000181694F58D819E81880F991F880F991F71
:103DD0002D893E89820F931FFC0180819181A281F0
:103DE000B3819C01AD0169897A898B899C890E9484
:103DF00081408823D9F48D819E81880F991F880F77
:103E0000991F2B813C81820F931FFC01808191813E
:103E1000A281B3819C01AD0169897A898B899C89D2
:103E20000E948140882314F481E049C08D819E81E5
:103E300001969E838D832D813E818F8598892817D9
:103E400039070CF417CF8D859E85FC018281938103
:103E5000AC018D859E85FC01208131818B819C8107
:103E6000B9010E94D9558F859889880F991F880FAD
:103E7000991F2B813C81820F931F9C838B838981A7
:103E80009A8101969A83898389819A819C01990FED
:103E9000440B550B89859A85FC01848D958DA68DE3
:103EA000B78D281739074A075B070CF4ACCE898514
:103EB0009A8521E030E0FC0137A326A380E06A96D2
:103EC0000FB6F894DEBF0FBECDBFDF91CF9108953E
:103ED0000F931F93CF93DF93CDB7DEB7C256D109AF
:103EE0000FB6F894DEBF0FBECDBFFE01E75AFF4FFD
:103EF00091838083CE01855A9F4FFC01408351837B
:103F000062837383CE01815A9F4FFC01008311832A
:103F100022833383CE01815A9F4FFC01208131815E
:103F200044E4429FC001439F900D1124875D994F47
:103F30009E838D831A8219828D819E8142969887F5
:103F40008F838D819E81FC0142855385CE01875AE6
:103F50009F4FFC0120813181C901880F991F880F73
:103F6000991F880F991F821B930B880F991F840F2D
:103F7000951F9A8789878F819885FC01808191811F
:103F8000029709F05CC08F819885FC01848D958D26
:103F9000A68DB78D892B8A2B8B2B41F48F81988529
:103FA00024E030E0FC013183208349C08F81988573
:103FB000FC01828193819E01275A3F4FF9012081A4
:103FC000318128173907D9F5CE01815A9F4FFC015D
:103FD00080819181A281B381BC01CD01E7DD88237D
:103FE00071F18F819885FC0184859585A685B785BB
:103FF000892B8A2B8B2BA9F48F81988524E030E0C4
:10400000FC01318320838F819885FC0184A595A5CF
:10401000A6A5B7A59C018F819885FC01318F208FC3
:104020000EC08F81988523E030E0FC01318320832E
:104030008F81988521E030E0FC01318F208F8F81C6
:104040009885FC0180819181029779F48F81988510
:10405000FC0180A591A5A2A5B3A5181619061A06FC
:104060001B061CF481E090E002C080E090E09C8799
:104070008B878F819885FC0180819181049729F03D
:104080008B859C85892B09F47DC389859A85FC01E4
:1040900082819381892B09F475C389859A85FC01F6
:1040A00026813781CE018F5B9F4FFC0131832083B6
:1040B0001E861D8681E090E0988B8F8782E090E0DD
:1040C0009A8B898B83E090E09C8B8B8B84E090E0D3
:1040D0009E8B8D8BCE018D5B9F4F24E1FC01322F97
:1040E00011923A95E9F79E012D5B3F4F8D899E898C
:1040F000880F991F880F991F280F391FCE01815AE9
:104100009F4FFC0180819181A281B381F90180835D
:104110009183A283B3838B859C85892B09F485C009
:104120008F819885FC0124A535A546A557A58F81CB
:104130009885FC0180A591A5A2A5B3A528173907EC
:104140004A075B0709F071C089859A85FC01848163
:10415000958129853A85F90122813381820F931F48
:10416000988F8F8B89859A85FC018085918504962F
:104170009A8F898F298D3A8DCE01895A9F4F44E0BD
:1041800050E0B9010E94D955CE01895A9F4FFC01D8
:104190008081918108969C01CE01895A9F4FFC0134
:1041A0003183208389859A85FC01808591859E01D4
:1041B000295A3F4FF90120813181280F391F898504
:1041C0009A85FC013187208789859A85FC01808545
:1041D00091859C018F89988DA901481B590BCA01B3
:1041E0009C8F8B8F8B8D9C8D992374F089859A85FC
:1041F000FC01248135818B8D9C8D280F391F898589
:104200009A85FC01318720878F819885FC0184A5E0
:1042100095A5A6A5B7A50197A109B1092F81388554
:10422000F90184A795A7A6A7B7A784E190E09E8F80
:104230008D8F9E01275C3F4FAE014F5B5F4F6D8DB1
:104240007E8D89859A857FDB882F90E09A8389838C
:1042500089819A81892B09F097C28D8D9E8D08974F
:104260009E8F8D8F9E012D5B3F4F8F859889880F84
:10427000991F880F991F820F931FFC0120813181A4
:10428000428153818D8D9E8D092E000CAA0BBB0B94
:10429000820F931FA41FB51FAE014D5B5F4F2F858B
:1042A0003889220F331F220F331F240F351FF901C6
:1042B00080839183A283B3839E012F5C3F4FAE0125
:1042C0004F5B5F4F89859A8564E070E03CDB882F07
:1042D00090E09A83898389819A81892B09F056C25B
:1042E0009E012D5B3F4F8F859889880F991F880FFE
:1042F000991F820F931FFC0180819181A281B3815C
:104300000496A11DB11DAE014D5B5F4F2F8538890D
:10431000220F331F220F331F240F351FF901808313
:104320009183A283B38389A99AA9AC018BA99CA983
:104330009E01255A3F4FB9010E94D9558FA998ADCA
:10434000892BA1F089A99AA99C01CE01855A9F4F7A
:10435000820F931F98A38F8F8DA99EA9AC018FA95F
:1043600098AD2F8D38A1B9010E94D9551DA61EA662
:104370001FA618AA64C18D819E81FC01208531850C
:104380008DA59EA5AFA5B8A9880F991F880F991F65
:10439000820F931F9CA38BA38BA19CA1FC01808106
:1043A0009181FC018081882309F43EC18BA19CA1ED
:1043B000FC0180819181FC018081833009F434C14A
:1043C0008BA19CA1FC0122813381CE01875A9F4F92
:1043D000FC0180819181880F991F820F931FFC013E
:1043E000808191819EA38DA38DA19EA1892B09F42B
:1043F0001BC19E012D5B3F4F89899A89880F991FA8
:10440000880F991F820F931FFC0180819181A281E7
:10441000B3810196A11DB11DAE014D5B5F4F29898E
:104420003A89220F331F220F331F240F351FF90142
:1044300080839183A283B38384E090E09E8F8D8FED
:104440009E012F5C3F4FAE014F5B5F4F6D8D7E8DA8
:1044500089859A8578DA882F90E09A838983898183
:104460009A81892B09F094C19E012D5B3F4F8F8566
:104470009889880F991F880F991F820F931FFC013D
:1044800020813181428153818D8D9E8D092E000CBA
:10449000AA0BBB0B820F931FA41FB51FAE014D5B70
:1044A0005F4F2F853889220F331F220F331F240FB0
:1044B000351FF90180839183A283B38389A99AA9C7
:1044C000AC018BA99CA99E01235D3F4FB9010E94BD
:1044D000D9558FA998AD892B99F089A99AA99C01E2
:1044E000CE018D96820F931F98A78FA38DA99EA9A9
:1044F000AC018FA998AD2FA138A5B9010E94D9555B
:104500001C821B827EC08DA19EA1FC01248135816D
:104510008B819C81880F991F880F991F820F931F91
:104520009AA789A789A59AA5FC01628173819E013A
:104530002F5C3F4FAE014F5B5F4F89859A8503DA51
:10454000882F90E09A83898389819A81892B09F049
:1045500021C19E012D5B3F4F8F859889880F991F40
:10456000880F991F820F931FFC01208131814281A6
:10457000538189A59AA5FC0182819381092E000CA3
:10458000AA0BBB0B820F931FA41FB51FAE014D5B7F
:104590005F4F2F853889220F331F220F331F240FBF
:1045A000351FF90180839183A283B38389A99AA9D6
:1045B000AC0189A59AA5FC01208131818BA99CA918
:1045C000B9010E94D9558FA998AD892BA9F089A569
:1045D0009AA5FC018081918129A93AA9820F931F94
:1045E0009CA78BA78DA99EA9AC018FA998AD2BA5DF
:1045F0003CA5B9010E94D9558B819C8101969C8371
:104600008B838B819C819C01990F440B550B8DA151
:104610009EA1FC0180819181A281B3812817390775
:104620004A075B070CF46FCF8DA59EA5AFA5B8A96F
:104630000196A11DB11D8DA79EA7AFA7B8AB8D8117
:104640009E81FC0124813581468157818DA59EA5DF
:10465000AFA5B8A982179307A407B5070CF48BCEB2
:104660009E012D5B3F4F89899A89880F991F880F7A
:10467000991F820F931FFC0180819181A281B381D8
:10468000892B8A2B8B2B09F487C09E012D5B3F4F12
:104690008D859E85880F991F880F991F280F391FB8
:1046A0008AE190E0A0E0B0E0F90180839183A283E9
:1046B000B383CE01875A9F4FFC0180819181092EDF
:1046C000000CAA0BBB0BAE014D5B5F4F2B893C89E5
:1046D000220F331F220F331F240F351FF901808350
:1046E0009183A283B38389AD9AADAC018BAD9CADB0
:1046F0009E012D5B3F4FB9010E94D955CE01CF9647
:10470000FC0180819181892BB9F089AD9AAD9C0122
:10471000CE018D5B9F4F820F931F9AA389A38DAD0E
:104720009EADAC01CE01CF96FC018081918129A183
:104730003AA1B9010E94D955CE018F5B9F4FFC0170
:104740002081318189859A85FC013783268389857B
:104750009A85FC01118210828B859C85892BE9F05A
:104760008F819885FC0184A595A5A6A5B7A501967E
:10477000A11DB11D2F813885F90184A795A7A6A792
:10478000B7A70BC0000009C0000007C0000005C0AB
:10479000000003C0000001C000008B859C85892BB0
:1047A00091F489819A81892B71F08F81988521E01C
:1047B00030E0FC01338F228F8F81988525E030E037
:1047C000FC01318320830000CE59DF4F0FB6F894EF
:1047D000DEBF0FBECDBFDF91CF911F910F91089526
:1047E000CF93DF9300D000D000D01F92CDB7DEB7BB
:1047F0006D837E838F8398875A8749872D813E8179
:1048000044E4429FC001439F900D1124875D994F5E
:104810009A83898389819A8142969C838B838B8139
:104820009C81FC0180819181892B09F47DC08B8161
:104830009C81FC0180819181019749F58B819C814C
:10484000FC01808D918DAC014F5F5F4F2B813C81CE
:10485000F901518F408F9C01990F440B550B8B81AF
:104860009C81FC0180859185A285B3852817390735
:104870004A075B0709F05AC029853A858D819E81D8
:10488000AF81B885A901BC01CD010E94341B8B8189
:104890009C81FC0180819181039709F048C08B8144
:1048A0009C81FC01808D918DAC014F5F5F4F2B810E
:1048B0003C81F901518F408F9C01990F440B550B9E
:1048C0008B819C81FC0184859585A685B7852817F9
:1048D00039074A075B075CF18B819C81FC0184A549
:1048E00095A5A6A5B7A59C018B819C81FC01318F64
:1048F000208F8B819C8124E030E0FC013183208378
:104900008B819C81FC0180A591A5A2A5B3A5181659
:1049100019061A061B065CF48B819C8121E030E0AD
:10492000FC0131AB20AB03C0000001C000002A969F
:104930000FB6F894DEBF0FBECDBFDF91CF910895C3
:10494000CF93DF9300D000D01F921F92CDB7DEB778
:104950006D837E838F8398872D813E8144E4429FBF
:10496000C001439F900D1124875D994F9A838983DD
:1049700089819A8142969C838B838B819C81FC01E7
:1049800080819181892B89F18B819C81FC018081BF
:104990009181049759F58B819C81FC01808D918DCB
:1049A0009C012F5F3F4F8B819C81FC01318F208FB9
:1049B0008B819C81FC01808D918D9C01990F440B12
:1049C000550B8B819C81FC0184819581A681B781E7
:1049D000281739074A075B0749F48B819C8125E03A
:1049E00030E0FC013183208301C0000028960FB61F
:1049F000F894DEBF0FBECDBFDF91CF910895CF9366
:104A0000DF93CDB7DEB768970FB6F894DEBF0FBE61
:104A1000CDBF9A8B898B4B8B5C8B6D8B7E8B388F4C
:104A20002F8B2B893C8944E4429FC001439F900D0A
:104A30001124875D994F9C838B838B819C810C967D
:104A40009E838D838D819E81FC01118210821A824A
:104A50001982C4C08B819C81FC01428553852981C8
:104A60003A81C901880F991F880F991F880F991FD4
:104A7000821B930B880F991F840F951F98878F8334
:104A80008F819885FC0180819181892B09F0A1C0DB
:104A90008F819885FC01808591859A8789878F8190
:104AA0009885FC01828193819C878B878F81988573
:104AB000FC01868197819E878D878D819E81FC0177
:104AC000248135818D819E81FC0180819181880FB7
:104AD000991F880F991F880F991F820F931F988B1A
:104AE0008F878D819E81FC01228133818D819E8102
:104AF000FC0180819181880F991F820F931F29816A
:104B00003A81FC01318320838D819E81FC0180816B
:104B100091819C012F5F3F4F8D819E81FC013183EC
:104B200020838F85988929853A85FC0133832283E8
:104B30008F8198852D853E85FC01338722872D85C1
:104B40003E8589859A8582179307B0F42D853E8529
:104B500089859A85281B390B8F859889FC013183BB
:104B600020838F859889FC01158214828F8598890E
:104B7000FC01178216822DC08F819885FC0124814B
:104B800035818B859C85820F931F9C0189859A8531
:104B9000281B390B8F859889FC01318320838D85F3
:104BA0009E852F813885F90124813581AC01421B16
:104BB000530B9A018F859889FC01358324838F815B
:104BC0009885FC01248135818F859889FC01378384
:104BD000268389819A8101969A83898329813A81E2
:104BE0008F89988D281739070CF434CF8D819E81D9
:104BF000FC012081318189899A89FC0131832083DC
:104C00008D819E81FC012481358189899A89FC01ED
:104C1000338322838D819E81FC01228133818989A6
:104C20009A89FC0135832483000068960FB6F894B6
:104C3000DEBF0FBECDBFDF91CF910895CF93DF933D
:104C400000D000D000D01F92CDB7DEB79E838D83F9
:104C50004F83588769877A872F81388544E4429F3C
:104C6000C001439F900D1124875D994F9A838983DA
:104C700089819A810C969C838B838B819C81FC011A
:104C8000118210828B819C81FC01208131818D8178
:104C90009E81FC01318320838D819E81FC011382E2
:104CA000128200002A960FB6F894DEBF0FBECDBF69
:104CB000DF91CF910895CF93DF93CDB7DEB72E97D5
:104CC0000FB6F894DEBF0FBECDBF98878F8349879C
:104CD0005A876B877C873E872D8789859A85AB8528
:104CE000BC8544E4489F9001499F300D1124C901BF
:104CF000875D994F9A83898389819A8142969C83A3
:104D00008B838B819C81FC01808191819E838D832B
:104D10008D819E81049729F08D819E81059709F0F0
:104D20005CC089859A85AB85BC852F813885AC01AF
:104D3000BD01C90183DF89859A85AB85BC852D8539
:104D40003E85EF81F885AC01BD01CF0158DE8F8132
:104D50009885FC0180819181892B09F049C08D8162
:104D60009E81059709F044C0109228068B819C8192
:104D7000FC0180859185A285B3858F3F9F4FAF4F02
:104D8000BF4FA9F4CE010996AC0164E070E080E267
:104D900090E00E94822F89859A85AB85BC852D8500
:104DA0003E85A901BC01CD010E94C81B21C0CE01D6
:104DB0000996AC0164E070E08FE190E00E94822FE0
:104DC0008B819C81FC01118E108E8B819C8121E056
:104DD00030E0FC01318320830BC089859A85AB8547
:104DE000BC852F813885AC01BD01C90127DF01C019
:104DF000000000002E960FB6F894DEBF0FBECDBFA8
:104E0000DF91CF910895CF93DF9300D000D0CDB73D
:104E1000DEB79A8389837C836B835E834D830E9494
:104E2000D935882319F116C028ED38EB45E050E05C
:104E300060E070E0CB010E94F53A4D815E812B81EC
:104E40003C8189819A81B9010E94263B8B819C819A
:104E50000E94993A8091B1069091B206892B31F463
:104E60008D819E81FC0180818823F1F28091BC03B9
:104E70009091BD03049731F083E090E09093BD03DF
:104E80008093BC03000026960FB6F894DEBF0FBED9
:104E9000CDBFDF91CF910895CF93DF9300D000D0A5
:104EA000CDB7DEB79A8389837C836B835E834D8322
:104EB0008091BC039091BD03049769F04D815E81A0
:104EC0002B813C8189819A81B9010E94263B8B818B
:104ED0009C810E94993A000026960FB6F894DEBF96
:104EE0000FBECDBFDF91CF910895CF93DF9300D058
:104EF00000D0CDB7DEB79A8389834B835C836D8303
:104F00007E838B819C81AD81BE8129813A81AC01F8
:104F1000BD01C9010E94493D000026960FB6F894D4
:104F2000DEBF0FBECDBFDF91CF910895CF93DF934A
:104F3000CDB7DEB70E94273D0000DF91CF910895E5
:104F4000CF93DF931F921F92CDB7DEB79A838983E9
:104F500089819A810E94FE3C00000F900F90DF91A2
:104F6000CF910895CF93DF931F921F92CDB7DEB7F5
:104F70009A8389830E94C13A00000F900F90DF91BD
:104F8000CF910895CF93DF931F921F92CDB7DEB7D5
:104F90009A83898389819A810E94AC3C00000F909A
:104FA0000F90DF91CF910895CF93DF931F921F92BF
:104FB000CDB7DEB79A8389838091BE039091BF03FA
:104FC000A091C003B091C10320E030E0A901BC0171
:104FD000CD010E94234288239CF48091BE039091CE
:104FE000BF03A091C003B091C10320E030E040E8CE
:104FF0005FEBBC01CD010E948140882309F00FC006
:105000008091BE039091BF03A091C003B091C103F2
:1050100029813A81F90180839183A283B3830000BF
:105020000F900F90DF91CF910895CF93DF931F9250
:105030001F92CDB7DEB79A83898389819A81B4DFC5
:1050400000000F900F90DF91CF910895CF93DF93E1
:1050500000D01F92CDB7DEB79A8389837C836B83A0
:1050600060E070E080E090E00E94953500000F90D5
:105070000F900F900F90DF91CF910895CF93DF9312
:10508000CDB7DEB70000DF91CF910895EF92FF9288
:105090000F931F93CF93DF93CDB7DEB762970FB611
:1050A000F894DEBF0FBECDBF9C878B877E876D8750
:1050B0002F87388B498B5A8B1A8219828D859E8552
:1050C0009C838B838FEF9FEF9E838D8346C08D8162
:1050D0009E81CC01A0E0B0E02F85388949895A89AA
:1050E00082179307A407B50718F08F85988902C027
:1050F0008D819E8198878F839E01275F3F4F4F81CF
:1051000058856B817C818B859C850E94B63D9A83F6
:10511000898389819A81019619F489819A8128C0AD
:1051200089859A85CC01A0E0B0E02F85388949892E
:105130005A8979018A01E81AF90A0A0B1B0BD8016E
:10514000C7018F87988BA98BBA8B89859A852B810C
:105150003C81820F931F9C838B838F859889A989BB
:10516000BA89892B8A2B8B2B09F0B1CF89819A813F
:1051700062960FB6F894DEBF0FBECDBFDF91CF9120
:105180001F910F91FF90EF900895CF93DF93CDB7CC
:10519000DEB740E855E260E070E080E090E026D0C5
:1051A0000000DF91CF910895CF93DF9300D000D01E
:1051B000CDB7DEB79A8389834B835C836D837E830F
:1051C0008B819C81AD81BE81E981FA8126E0AC01B1
:1051D000BD01CF010E94EF4C000026960FB6F89457
:1051E000DEBF0FBECDBFDF91CF910895CF93DF9388
:1051F00000D000D0CDB7DEB79A8389834B835C8320
:105200006D837E8389819A8181309105B1F08230EE
:1052100091051CF4892B39F02EC082309105B9F02C
:105220000397F9F028C08B819C81AD81BE81AC01D0
:10523000BD0189E897E0B8DF1EC08B819C81AD81FC
:10524000BE81AC01BD0186E298E0AEDF14C08B8167
:105250009C81AD81BE81AC01BD0183EC98E0A4DFEF
:105260000AC08B819C81AD81BE81AC01BD0180E60D
:1052700099E09ADF0000000026960FB6F894DEBF92
:105280000FBECDBFDF91CF910895CF93DF93CDB700
:10529000DEB70000DF91CF910895EF92FF920F9358
:1052A0001F93CF93DF9300D01F921F92CDB7DEB72D
:1052B00019820E941A48DC01CB018093B7069093B3
:1052C000B806A093B906B093BA062091B7063091FC
:1052D000B8064091B9065091BA068091B3069091F4
:1052E000B406A091B506B091B60679018A01E81A14
:1052F000F90A0A0B1B0BD801C701803A9648A14056
:10530000B10508F43EC08091B7069091B806A0910F
:10531000B906B091BA068093B3069093B406A093F1
:10532000B506B093B6060E94213F0E941A48DC01E0
:10533000CB018A839B83AC83BD838091B30690911C
:10534000B406A091B506B091B6062A813B814C8186
:105350005D8179018A01E81AF90A0A0B1B0BD80151
:10536000C701803A9648A140B10538F081E090E04D
:105370009093E9068093E80604C01092E906109223
:10538000E80681E0898389810F900F900F900F903C
:105390000F90DF91CF911F910F91FF90EF900895A3
:1053A000CF93DF93CDB7DEB72D970FB6F894DEBF5E
:1053B0000FBECDBF998788877B876A875D874C87BB
:1053C0001D821C8281E090E09A83898381E08B8337
:1053D0005DC089819A819C012F5F3F4F3A83298369
:1053E000880F991F2C853D85820F931FFC018081BA
:1053F00091819F838E838E819F81892B09F446C082
:105400008E819F816FEF74E00E94E955892B81F4B2
:1054100081E08B8389819A8181509048880F991F00
:105420002C853D85820F931FFC01118210822EC0B6
:105430008E819F8162E075E00E94E955892B31F5EC
:1054400029813A818A859B8528173907F9F0898156
:105450009A8101969A83898389819A8182509048A2
:10546000880F991F2C853D85820F931FFC011182A7
:10547000108289819A8181509048880F991F2C85CC
:105480003D85820F931FFC011182108229813A8190
:105490008A859B85281739070CF49BCF88859985C9
:1054A0002B81FC0120832C853D858A859B85B90154
:1054B0000E94843D9C0188859985FC01328321836B
:1054C0008C819D812D960FB6F894DEBF0FBECDBFA7
:1054D000DF91CF910895CF93DF93CDB7DEB78BEBFC
:1054E00096E0DF91CF910895CF93DF9300D0CDB7B1
:1054F000DEB79B838A83198289810F900F900F906A
:10550000DF91CF910895CF93DF93CDB7DEB72D977D
:105510000FB6F894DEBF0FBECDBF9D838C837F8313
:105520006E83598748873B872A8719828A859B859E
:10553000FC01118210828E819F81092E000CAA0B22
:10554000BB0B2C813D81F9010180F281E02DFD87AB
:10555000EC87688579859C01AD018C859D8596DDFC
:105560009B838A838A819B81019619F481E08983D8
:1055700007C08A859B852E813F81FC013183208372
:1055800089812D960FB6F894DEBF0FBECDBFDF9197
:10559000CF910895CF93DF93CDB7DEB72D970FB698
:1055A000F894DEBF0FBECDBF9F838E837987688757
:1055B0005B874A873D872C871982488559858E816C
:1055C0009F81FC01818192819E012C5F3F4F6C8500
:1055D0007D850E94E93D9B838A838A819B81019618
:1055E00019F481E0898308C08C819D819C018A85A2
:1055F0009B85FC013183208389812D960FB6F89419
:10560000DEBF0FBECDBFDF91CF910895CF93DF9363
:105610001F921F92CDB7DEB79A83898389819A81C1
:10562000FC0180810F900F90DF91CF910895CF936F
:10563000DF931F921F92CDB7DEB79A838983000054
:105640000F900F90DF91CF9108950F931F93CF93F9
:10565000DF9300D000D000D01F92CDB7DEB79A8381
:1056600089834B835C836D837E830F8318872987AF
:105670003A8700002A960FB6F894DEBF0FBECDBF62
:10568000DF91CF911F910F910895CF93DF9300D0B9
:105690001F921F92CDB7DEB79B838A837D836C8375
:1056A00019828C819D8121E0FC01208389810F90EA
:1056B0000F900F900F900F90DF91CF910895CF939F
:1056C000DF931F921F92CDB7DEB79A8389830000C4
:1056D0000F900F90DF91CF910895CF93DF931F929A
:1056E0001F92CDB7DEB79A8389831092E706000038
:1056F0000F900F90DF91CF910895CF93DF931F927A
:105700001F92CDB7DEB79A83898389819A81FC0184
:10571000818192810E94743E00000F900F90DF9172
:10572000CF910895CF93DF931F921F92CDB7DEB72D
:105730009A8389838091CF069091D00629813A81FE
:105740008217930734F58091D1069091D206892B68
:1057500051F08091D1069091D2060E944C55109242
:10576000D0061092CF0689819A810E94B0549093FE
:10577000D2068093D1068091D1069091D206892BD2
:1057800011F481E007C089819A819093D0068093BB
:10579000CF0680E00F900F90DF91CF910895CF93C7
:1057A000DF9300D000D000D01F921F92CDB7DEB79C
:1057B000998788877B876A871F821E821A8219824F
:1057C00088E090E09D838C831B8227C089819A8129
:1057D00028853985F901E80FF91F2C813D818981E0
:1057E0009A81B901681B790B8091CD069091CE0604
:1057F000AE014A5F5F4F9F01CDDE8B838B81882393
:10580000A1F48E819F8129813A81820F931F9A830F
:10581000898389819A81892B51F029813A818C81F0
:105820009D812817390794F203C0000001C00000D1
:105830008E819F8121E0181619060CF020E08A85E0
:105840009B85FC0120838B812B960FB6F894DEBFDD
:105850000FBECDBFDF91CF910895CF93DF93CDB72A
:10586000DEB761970FB6F894DEBF0FBECDBF9F873E
:105870008E87798B688B1D861C861A82198288E038
:1058800090E0998788871B821C821D821E821F825E
:105890008885998502969B878A8792C089819A819B
:1058A0009C012B52394F8091CD069091CE06AE01CE
:1058B000445F5F4F61E070E06DDE8B838B818823F6
:1058C00009F087C08C859D8529813A81820F931FBD
:1058D0009A83898389819A81892B09F47CC08C8180
:1058E0009D81AE81BF810196A11DB11D8C839D83D9
:1058F000AE83BF838C819D81AE81BF8180399F45FE
:10590000A140B1055CF08091BE069091BF06BC013C
:105910008DEE90E081D21D861C865EC029813A8181
:105920008A859B852817390709F04AC049E050E06D
:1059300060E070E085ED96E00E94893E8823B1F139
:10594000888599858B52994FFC018081282F30E002
:105950008091BE069091BF062817390721F58091E6
:10596000BE069091BF06BC018EEE90E055D2288510
:1059700039858E859F85A90165ED76E00E94D95510
:105980008091BE069091BF0601969093BF068093CA
:10599000BE068091BE069091BF0699279093BF06E0
:1059A0008093BE060DC01D861C860AC08091BE066F
:1059B0009091BF06BC018FEE90E02ED21D861C8612
:1059C00029813A818A859B85281739070CF466CF8F
:1059D00003C0000001C000008C859D8521E01816E1
:1059E00019060CF020E088899989FC0120838B81BD
:1059F00061960FB6F894DEBF0FBECDBFDF91CF9199
:105A00000895CF93DF9300D01F92CDB7DEB79C836C
:105A10008B831A8219822DC089819A81092E000CEC
:105A2000AA0BBB0BBC01CD010E94FB17809128067D
:105A3000882369F089819A81092E000CAA0BBB0B7F
:105A40002B813C81A901BC01CD010E94E6358981F1
:105A50009A81092E000CAA0BBB0B2B813C81A9015A
:105A6000BC01CD010E94051789819A8101969A8314
:105A7000898389819A8102977CF21092CA061092DA
:105A8000CB061092BF061092BE068091CD06909173
:105A9000CE0623DE00000F900F900F900F90DF9145
:105AA000CF910895CF93DF9300D01F92CDB7DEB78B
:105AB0009C838B831092CA061092CB061092BF066D
:105AC0001092BE061A82198212C089819A81092E0B
:105AD000000CAA0BBB0B2B813C81A901BC01CD01A1
